S0130000484434343738305F4932432E7372656361
S11300000C9485000C94A2000C94A2000C94A20001
S11300100C94A2000C94A2000C94A2000C94A200D4
S11300200C94A2000C94A2000C94A2000C94A200C4
S11300300C94A2000C94A2000C94A2000C94A200B4
S11300400C94A2000C94A2000C94A2000C94A200A4
S11300500C94A2000C94A2000C94A2000C94A20094
S11300600C9404020C94A2001F027102710271022A
S113007071027102710271021F0271027102710236
S11300807102710271027102210271027102710224
S113009071027102710271027102710271027102C4
S11300A07102710271027102210271027102710204
S11300B071027102710271027102710271027102A4
S11300C071027102710271026D0271027102710298
S11300D071027102710271024A02710271027102AB
S11300E07102710271027102710271027102710274
S11300F071027102710271023E0271027102710297
S113010071027102710271025C0211241FBECFEFF1
S1130110D8E0DEBFCDBF11E0A0E0B1E0E8ECF5E04F
S113012002C005900D92A830B107D9F721E0A8E0EC
S1130130B1E001C01D92A631B207E1F70E9472013D
S11301400C94E2020C940000282F207F30E1839F5E
S1130150C0011124E1E1F1E0922F9D6091832960B7
S11301602283982F9D609383827F896084838EE4A9
S1130170808365E0CF010E94D7010895282F207F56
S113018030E1839FC0011124E1E1F1E0922F9C60F2
S1130190918328602283982F9C609383837F886057
S11301A084838EE4808365E0CF010E94D7010895A3
S11301B060EA76E881E090E00E94B90178942FEF3C
S11301C080E792E0215080409040E1F700C00000B9
S11301D080E30E94BE008FEB9DE50197F1F700C01C
S11301E0000080E30E94BE008FE39FE10197F1F7D6
S11301F000C0000080E30E94BE008FED9BEA0197DF
S1130200F1F700C0000080E20E94BE0088E20E9474
S1130210BE008FE39FE10197F1F700C0000088E082
S1130220809308010E94BE008FE39FE10197F1F7DC
S113023000C0000081E00E94BE008FE79EE30197AA
S1130240F1F700C0000086E00E94BE008FE39FE14A
S11302500197F1F700C000008CE0809308010E9430
S1130260BE00089581E00E94BE008FE39FE10197E4
S1130270F1F700C0000008958130910579F01CF475
S1130280892B39F01DC08230910571F0039791F0EC
S113029017C0862F80680E94BE00089580E4860FF0
S11302A080680E94BE00089584E1860F80680E94E1
S11302B0BE00089584E5860F80680E94BE000895FC
S11302C0862F80680E94BE000895CF93DF93EC01CF
S11302D003C021960E94A40088818111FACFDF9186
S11302E0CF910895CF93DF9300D000D01F92CDB764
S11302F0DEB787B1807387B988B188B90E94D80006
S11303000E94320160E070E080E090E00E943C01D5
S113031081E091E00E94650100E010E026C063E006
S113032070E080E090E00E943C0184E091E00E9453
S1130330650163E070E080E090E00E943C014AE0E7
S1130340BE016F5F7F4FC8010E94AD02CE010196CE
S11303500E9465012FEF89E698E12150804090408A
S1130360E1F700C000000F5F1F4F04311105BCF21C
S1130370D3CF9B01AC0160E074E284EF90E00E9473
S11303808502DA01C9014097A109B109B695A7957B
S1130390979587958093B8008FEF8093BB0084E096
S11303A08093BC0008958091BC00817008950F93E0
S11303B01F93CF938C01C62F0E94D3018111FCCFD0
S11303C0C0930B01F801808180930C0180FF0DC064
S11303D00FC0822F90E0F801E80FF91F3081FC0173
S11303E0E45FFE4F30832F5F01C021E02C1788F3B8
S11303F010920A0188EF8093000185EA8093BC0083
S1130400CF911F910F9108951F920F920FB60F92E3
S113041011242F933F938F939F93AF93BF93EF93A5
S1130420FF93E091B9008E2F90E0FC013897E135FD
S1130430F10508F056C0EC5CFF4F0C94A702109233
S11304400901E091090180910B01E81770F481E042
S11304508E0F80930901F0E0E45FFE4F808180936A
S1130460BB0085E88093BC0043C080910A01816091
S113047080930A0184E98093BC003AC0E0910901A9
S113048081E08E0F80930901F0E08091BB00E45F6E
S1130490FE4F80832091090130E080910B0190E0B0
S11304A001972817390724F485EC8093BC0020C0F9
S11304B085E88093BC001CC0E0910901F0E08091C4
S11304C0BB00E45FFE4F808380910A0181608093CA
S11304D00A0184E98093BC000BC085EA8093BC00C8
S11304E007C08091B9008093000184E08093BC0030
S11304F0FF91EF91BF91AF919F918F913F912F9178
S11305000F900FBE0F901F901895A1E21A2EAA1BF0
S1130510BB1BFD010DC0AA1FBB1FEE1FFF1FA217AF
S1130520B307E407F50720F0A21BB30BE40BF50BAC
S1130530661F771F881F991F1A9469F76095709535
S1130540809590959B01AC01BD01CF010895EE0FFC
S1130550FF1F0590F491E02D0994BB274A3031F434
S1130560992322F4BDE2909581959F4F0C94B90292
S1130570BB27FB015527AA27880F991FAA1FA41779
S113058010F0A41B83955051B9F7A05DAA3308F06D
S1130590A95DA193009779F7B111B1931192CB01A1
S11305A00C94D202DC01FC01672F71917723E1F7EF
S11305B0329704C07C916D9370836291AE17BF072C
S10B05C0C8F30895F894FFCF7D
S10B05C8F8413D002020000071
S9030000FC
